{
  "_format": "hh-sol-artifact-1",
  "contractName": "Cashier",
  "sourceName": "contracts/cashier/Cashier.sol",
  "abi": [
    {
      "anonymous": false,
      "inputs": [
        {
          "indexed": true,
          "internalType": "address",
          "name": "previousOwner",
          "type": "address"
        },
        {
          "indexed": true,
          "internalType": "address",
          "name": "newOwner",
          "type": "address"
        }
      ],
      "name": "OwnershipTransferred",
      "type": "event"
    },
    {
      "anonymous": false,
      "inputs": [
        {
          "indexed": false,
          "internalType": "address",
          "name": "sender",
          "type": "address"
        },
        {
          "indexed": false,
          "internalType": "string",
          "name": "serviceName",
          "type": "string"
        },
        {
          "indexed": false,
          "internalType": "uint256",
          "name": "amount",
          "type": "uint256"
        }
      ],
      "name": "Receipt",
      "type": "event"
    },
    {
      "inputs": [
        {
          "internalType": "string",
          "name": "serviceName",
          "type": "string"
        }
      ],
      "name": "getPrice",
      "outputs": [
        {
          "internalType": "uint256",
          "name": "",
          "type": "uint256"
        }
      ],
      "stateMutability": "view",
      "type": "function"
    },
    {
      "inputs": [],
      "name": "owner",
      "outputs": [
        {
          "internalType": "address",
          "name": "",
          "type": "address"
        }
      ],
      "stateMutability": "view",
      "type": "function"
    },
    {
      "inputs": [
        {
          "internalType": "string",
          "name": "serviceName",
          "type": "string"
        }
      ],
      "name": "pay",
      "outputs": [],
      "stateMutability": "payable",
      "type": "function"
    },
    {
      "inputs": [],
      "name": "renounceOwnership",
      "outputs": [],
      "stateMutability": "nonpayable",
      "type": "function"
    },
    {
      "inputs": [
        {
          "internalType": "string",
          "name": "serviceName",
          "type": "string"
        },
        {
          "internalType": "uint256",
          "name": "price",
          "type": "uint256"
        }
      ],
      "name": "setPrice",
      "outputs": [],
      "stateMutability": "nonpayable",
      "type": "function"
    },
    {
      "inputs": [
        {
          "internalType": "address",
          "name": "newOwner",
          "type": "address"
        }
      ],
      "name": "transferOwnership",
      "outputs": [],
      "stateMutability": "nonpayable",
      "type": "function"
    },
    {
      "inputs": [
        {
          "internalType": "uint256",
          "name": "amount",
          "type": "uint256"
        }
      ],
      "name": "withdraw",
      "outputs": [],
      "stateMutability": "nonpayable",
      "type": "function"
    }
  ],
  "bytecode": "0x608060405234801561001057600080fd5b5061001a3361001f565b61006f565b600080546001600160a01b038381166001600160a01b0319831681178455604051919092169283917f8be0079c531659141344cd1fd0a4f28419497f9722a3daafe3b4186f6b6457e09190a35050565b61076f8061007e6000396000f3fe6080604052600436106100705760003560e01c8063524f38891161004e578063524f3889146100ca578063715018a6146100fd5780638da5cb5b14610112578063f2fde38b1461013a57600080fd5b806322e01192146100755780632b66d72e146100975780632e1a7d4d146100aa575b600080fd5b34801561008157600080fd5b5061009561009036600461061a565b61015a565b005b6100956100a53660046105dd565b6101dc565b3480156100b657600080fd5b506100956100c536600461065f565b610284565b3480156100d657600080fd5b506100ea6100e53660046105dd565b61031b565b6040519081526020015b60405180910390f35b34801561010957600080fd5b50610095610340565b34801561011e57600080fd5b506000546040516001600160a01b0390911681526020016100f4565b34801561014657600080fd5b506100956101553660046105ad565b6103a6565b6000546001600160a01b031633146101b95760405162461bcd60e51b815260206004820181905260248201527f4f776e61626c653a2063616c6c6572206973206e6f7420746865206f776e657260448201526064015b60405180910390fd5b80600160006101c785610488565b81526020810191909152604001600020555050565b600160006101e983610488565b81526020019081526020016000205434146102465760405162461bcd60e51b815260206004820152601460248201527f436173686965723a2077726f6e6720707269636500000000000000000000000060448201526064016101b0565b7f3fed0c34c3147da92567a9b2833414b25a67e9f812d4d566b6ccdea51a6ea4d1338234604051610279939291906106c5565b60405180910390a150565b6000546001600160a01b031633146102de5760405162461bcd60e51b815260206004820181905260248201527f4f776e61626c653a2063616c6c6572206973206e6f7420746865206f776e657260448201526064016101b0565b600080546040516001600160a01b039091169183156108fc02918491818181858888f19350505050158015610317573d6000803e3d6000fd5b5050565b60006001600061032a84610488565b8152602001908152602001600020549050919050565b6000546001600160a01b0316331461039a5760405162461bcd60e51b815260206004820181905260248201527f4f776e61626c653a2063616c6c6572206973206e6f7420746865206f776e657260448201526064016101b0565b6103a460006104b8565b565b6000546001600160a01b031633146104005760405162461bcd60e51b815260206004820181905260248201527f4f776e61626c653a2063616c6c6572206973206e6f7420746865206f776e657260448201526064016101b0565b6001600160a01b03811661047c5760405162461bcd60e51b815260206004820152602660248201527f4f776e61626c653a206e6577206f776e657220697320746865207a65726f206160448201527f646472657373000000000000000000000000000000000000000000000000000060648201526084016101b0565b610485816104b8565b50565b60008160405160200161049b91906106f7565b604051602081830303815290604052805190602001209050919050565b600080546001600160a01b038381167fffffffffffffffffffffffff0000000000000000000000000000000000000000831681178455604051919092169283917f8be0079c531659141344cd1fd0a4f28419497f9722a3daafe3b4186f6b6457e09190a35050565b600082601f83011261053157600080fd5b813567ffffffffffffffff8082111561054c5761054c61070a565b604051601f8301601f19908116603f011681019082821181831017156105745761057461070a565b8160405283815286602085880101111561058d57600080fd5b836020870160208301376000602085830101528094505050505092915050565b6000602082840312156105bf57600080fd5b81356001600160a01b03811681146105d657600080fd5b9392505050565b6000602082840312156105ef57600080fd5b813567ffffffffffffffff81111561060657600080fd5b61061284828501610520565b949350505050565b6000806040838503121561062d57600080fd5b823567ffffffffffffffff81111561064457600080fd5b61065085828601610520565b95602094909401359450505050565b60006020828403121561067157600080fd5b5035919050565b6000815180845260005b8181101561069e57602081850181015186830182015201610682565b818111156106b0576000602083870101525b50601f01601f19169290920160200192915050565b6001600160a01b03841681526060602082015260006106e76060830185610678565b9050826040830152949350505050565b6020815260006105d66020830184610678565b7f4e487b7100000000000000000000000000000000000000000000000000000000600052604160045260246000fdfea26469706673582212207e56027f3db33d6dba9dfb1dff7345ffa99730fe930e0f9274ef537c11c52e6d64736f6c63430008070033",
  "linkReferences": {},
  "deployedLinkReferences": {}
}