{
  "_format": "hh-sol-artifact-1",
  "contractName": "TokenFactory",
  "sourceName": "contracts/TokenFactory.sol",
  "abi": [
    {
      "anonymous": false,
      "inputs": [
        {
          "indexed": false,
          "internalType": "address",
          "name": "owner",
          "type": "address"
        },
        {
          "indexed": false,
          "internalType": "contract IERC20",
          "name": "tokenAddress",
          "type": "address"
        }
      ],
      "name": "TokenCreated",
      "type": "event"
    },
    {
      "inputs": [
        {
          "internalType": "string",
          "name": "name",
          "type": "string"
        },
        {
          "internalType": "string",
          "name": "symbol",
          "type": "string"
        },
        {
          "internalType": "uint8",
          "name": "decimals",
          "type": "uint8"
        },
        {
          "internalType": "uint256",
          "name": "initialSupply",
          "type": "uint256"
        }
      ],
      "name": "create",
      "outputs": [],
      "stateMutability": "payable",
      "type": "function"
    }
  ],
  "bytecode": "0x608060405234801561001057600080fd5b50611098806100206000396000f3fe60806040526004361061001e5760003560e01c8063831e80f214610023575b600080fd5b61003661003136600461016a565b610038565b005b6000338585858560405161004b906100d0565b61005995949392919061023b565b604051809103906000f080158015610075573d6000803e3d6000fd5b5090507fd5f9bdf12adf29dab0248c349842c3822d53ae2bb4f36352f301630d018c8139336040805173ffffffffffffffffffffffffffffffffffffffff928316815291841660208301520160405180910390a15050505050565b610d9f806102c483390190565b600082601f8301126100ee57600080fd5b813567ffffffffffffffff8082111561010957610109610294565b604051601f8301601f19908116603f0116810190828211818310171561013157610131610294565b8160405283815286602085880101111561014a57600080fd5b836020870160208301376000602085830101528094505050505092915050565b6000806000806080858703121561018057600080fd5b843567ffffffffffffffff8082111561019857600080fd5b6101a4888389016100dd565b955060208701359150808211156101ba57600080fd5b506101c7878288016100dd565b935050604085013560ff811681146101de57600080fd5b9396929550929360600135925050565b6000815180845260005b81811015610214576020818501810151868301820152016101f8565b81811115610226576000602083870101525b50601f01601f19169290920160200192915050565b73ffffffffffffffffffffffffffffffffffffffff8616815260a06020820152600061026a60a08301876101ee565b828103604084015261027c81876101ee565b60ff9590951660608401525050608001529392505050565b7f4e487b7100000000000000000000000000000000000000000000000000000000600052604160045260246000fdfe60806040523480156200001157600080fd5b5060405162000d9f38038062000d9f8339810160408190526200003491620002d1565b8351849084906200004d90600390602085019062000174565b5080516200006390600490602084019062000174565b50506005805460ff191660ff8516179055506200008185826200008c565b5050505050620003fb565b6001600160a01b038216620000e75760405162461bcd60e51b815260206004820152601f60248201527f45524332303a206d696e7420746f20746865207a65726f206164647265737300604482015260640160405180910390fd5b8060026000828254620000fb919062000381565b90915550506001600160a01b038216600090815260208190526040812080548392906200012a90849062000381565b90915550506040518181526001600160a01b038316906000907fddf252ad1be2c89b69c2b068fc378daa952ba7f163c4a11628f55a4df523b3ef9060200160405180910390a35050565b8280546200018290620003a8565b90600052602060002090601f016020900481019282620001a65760008555620001f1565b82601f10620001c157805160ff1916838001178555620001f1565b82800160010185558215620001f1579182015b82811115620001f1578251825591602001919060010190620001d4565b50620001ff92915062000203565b5090565b5b80821115620001ff576000815560010162000204565b600082601f8301126200022c57600080fd5b81516001600160401b0380821115620002495762000249620003e5565b604051601f8301601f19908116603f01168101908282118183101715620002745762000274620003e5565b816040528381526020925086838588010111156200029157600080fd5b600091505b83821015620002b5578582018301518183018401529082019062000296565b83821115620002c75760008385830101525b9695505050505050565b600080600080600060a08688031215620002ea57600080fd5b85516001600160a01b03811681146200030257600080fd5b60208701519095506001600160401b03808211156200032057600080fd5b6200032e89838a016200021a565b955060408801519150808211156200034557600080fd5b5062000354888289016200021a565b935050606086015160ff811681146200036c57600080fd5b80925050608086015190509295509295909350565b60008219821115620003a357634e487b7160e01b600052601160045260246000fd5b500190565b600181811c90821680620003bd57607f821691505b60208210811415620003df57634e487b7160e01b600052602260045260246000fd5b50919050565b634e487b7160e01b600052604160045260246000fd5b610994806200040b6000396000f3fe608060405234801561001057600080fd5b50600436106100c95760003560e01c80633950935111610081578063a457c2d71161005b578063a457c2d71461018d578063a9059cbb146101a0578063dd62ed3e146101b357600080fd5b8063395093511461014957806370a082311461015c57806395d89b411461018557600080fd5b806318160ddd116100b257806318160ddd1461010f57806323b872dd14610121578063313ce5671461013457600080fd5b806306fdde03146100ce578063095ea7b3146100ec575b600080fd5b6100d66101ec565b6040516100e391906108a8565b60405180910390f35b6100ff6100fa36600461087e565b61027e565b60405190151581526020016100e3565b6002545b6040519081526020016100e3565b6100ff61012f366004610842565b610294565b60055460405160ff90911681526020016100e3565b6100ff61015736600461087e565b610358565b61011361016a3660046107ed565b6001600160a01b031660009081526020819052604090205490565b6100d6610394565b6100ff61019b36600461087e565b6103a3565b6100ff6101ae36600461087e565b610454565b6101136101c136600461080f565b6001600160a01b03918216600090815260016020908152604080832093909416825291909152205490565b6060600380546101fb90610923565b80601f016020809104026020016040519081016040528092919081815260200182805461022790610923565b80156102745780601f1061024957610100808354040283529160200191610274565b820191906000526020600020905b81548152906001019060200180831161025757829003601f168201915b5050505050905090565b600061028b338484610461565b50600192915050565b60006102a18484846105b9565b6001600160a01b0384166000908152600160209081526040808320338452909152902054828110156103405760405162461bcd60e51b815260206004820152602860248201527f45524332303a207472616e7366657220616d6f756e742065786365656473206160448201527f6c6c6f77616e636500000000000000000000000000000000000000000000000060648201526084015b60405180910390fd5b61034d8533858403610461565b506001949350505050565b3360008181526001602090815260408083206001600160a01b0387168452909152812054909161028b91859061038f9086906108fd565b610461565b6060600480546101fb90610923565b3360009081526001602090815260408083206001600160a01b03861684529091528120548281101561043d5760405162461bcd60e51b815260206004820152602560248201527f45524332303a2064656372656173656420616c6c6f77616e63652062656c6f7760448201527f207a65726f0000000000000000000000000000000000000000000000000000006064820152608401610337565b61044a3385858403610461565b5060019392505050565b600061028b3384846105b9565b6001600160a01b0383166104dc5760405162461bcd60e51b8152602060048201526024808201527f45524332303a20617070726f76652066726f6d20746865207a65726f2061646460448201527f72657373000000000000000000000000000000000000000000000000000000006064820152608401610337565b6001600160a01b0382166105585760405162461bcd60e51b815260206004820152602260248201527f45524332303a20617070726f766520746f20746865207a65726f20616464726560448201527f73730000000000000000000000000000000000000000000000000000000000006064820152608401610337565b6001600160a01b0383811660008181526001602090815260408083209487168084529482529182902085905590518481527f8c5be1e5ebec7d5bd14f71427d1e84f3dd0314c0f7b2291e5b200ac8c7c3b925910160405180910390a3505050565b6001600160a01b0383166106355760405162461bcd60e51b815260206004820152602560248201527f45524332303a207472616e736665722066726f6d20746865207a65726f20616460448201527f64726573730000000000000000000000000000000000000000000000000000006064820152608401610337565b6001600160a01b0382166106b15760405162461bcd60e51b815260206004820152602360248201527f45524332303a207472616e7366657220746f20746865207a65726f206164647260448201527f65737300000000000000000000000000000000000000000000000000000000006064820152608401610337565b6001600160a01b038316600090815260208190526040902054818110156107405760405162461bcd60e51b815260206004820152602660248201527f45524332303a207472616e7366657220616d6f756e742065786365656473206260448201527f616c616e636500000000000000000000000000000000000000000000000000006064820152608401610337565b6001600160a01b038085166000908152602081905260408082208585039055918516815290812080548492906107779084906108fd565b92505081905550826001600160a01b0316846001600160a01b03167fddf252ad1be2c89b69c2b068fc378daa952ba7f163c4a11628f55a4df523b3ef846040516107c391815260200190565b60405180910390a350505050565b80356001600160a01b03811681146107e857600080fd5b919050565b6000602082840312156107ff57600080fd5b610808826107d1565b9392505050565b6000806040838503121561082257600080fd5b61082b836107d1565b9150610839602084016107d1565b90509250929050565b60008060006060848603121561085757600080fd5b610860846107d1565b925061086e602085016107d1565b9150604084013590509250925092565b6000806040838503121561089157600080fd5b61089a836107d1565b946020939093013593505050565b600060208083528351808285015260005b818110156108d5578581018301518582016040015282016108b9565b818111156108e7576000604083870101525b50601f01601f1916929092016040019392505050565b6000821982111561091e57634e487b7160e01b600052601160045260246000fd5b500190565b600181811c9082168061093757607f821691505b6020821081141561095857634e487b7160e01b600052602260045260246000fd5b5091905056fea26469706673582212202a23e9e8eaf31ef34b201503a119530cc3ed5a4742887a27271623e7ccfda68064736f6c63430008070033a264697066735822122019dc13ba3a15f7e6b447d26b9febeb8c2a778dd88382cfd01daaea244d06a00664736f6c63430008070033",
  "linkReferences": {},
  "deployedLinkReferences": {}
}